:1018000050C084C069C068C067C066C065C064C09D
:1018100063C062C061C060C05FC05EC05DC05CC0CC
:101820005BC05AC059C00600FF0901A1011500267E
:10183000FF007508850195060900B2020185029531
:10184000830900B20201C0090222000101008032B6
:101850000904000001030000000921010100012228
:101860002100070581030800C812011001000000D3
:1018700008C016DF050001010200011003480049FD
:1018800000440042006F006F00740012036F00629A
:10189000006400650076002E0061007400040309F6
:1018A000040011241FBECFE5D4E0DEBFCDBF10E0A1
:1018B000A0E6B0E0E8ECFEE102C005900D92AA3689
:1018C000B107D9F720E0AAE6B0E001C01D92AB391C
:1018D000B207E1F74CD1F6C293CFA82FB92F80E021
:1018E00090E041E050EA609530E009C02D918227F8
:1018F0009795879510F084279527305EC8F36F5F22
:10190000A8F30895EADF8D939D930895CF93CFB701
:10191000CF93C395809BE9F7809B09C0809B07C04C
:10192000809B05C0809B03C0809B01C0A3C0DF9348
:10193000C0917E00DD27CB57DF4F809B02C0DF9137
:10194000EBCF2F930F931F9300B32FEF00FB20F9E2
:101950004F933F9310B34FEF012700FB21F93BE07A
:1019600031C04E7F012F10B3216028C0102F4D7F52
:101970002260000000B329C04B7F2460012F0000CB
:1019800010B32BC010B3477F28602AC04F7E00B32E
:1019900020612CC04F7D10B320622FC04F7B00B35D
:1019A000206432C0422700B349934FEF0000102754
:1019B00010FB20F910B31570C9F1297F91F20127AE
:1019C00000FB21F900B3237F89F2315058F1102731
:1019D00010FB22F910B3277E79F2012700FB23F9CF
:1019E0002F7C81F200B3102710FB24F92F7971F2BC
:1019F00000C010B3012700FB25F92F7359F200C076
:101A000000B3102710FB26F9223040F200C010B3BB
:101A1000012700FB27F9243028F64F77206810B300
:101A20000000F9CF10E41ABF002719C03B503195D0
:101A3000C31BD04010E41ABF0881033CF9F00B34FB
:101A4000E9F020917C001981110F1213EDCF4A812A
:101A5000441F093641F10D3211F0013E29F7009380
:101A600083003F914F911F910F912F91DF91CAB742
:101A7000C6FD4FCFCF91CFBFCF9118952091830056
:101A8000222379F310918100112321F5343022F1C2
:101A90003093810020937D0010917E003BE0311B4C
:101AA00030937E0019C00091810001309CF40AE55A
:101AB0004F7081F43091680034FD10C000936800CD
:101AC000C1E7D0E00FC02795A8F45150A9F4220F28
:101AD0000000F9CF4AE503C042ED01C0432FC4E145
:101AE000D0E032E011B31560909A11BB02B320E44C
:101AF00015E05F93012756E002BB279520F4515073
:101B000021F4220FF9CF012756E000003B5A02BB17
:101B1000D0F2279528F4515029F4220F0000F9CF74
:101B2000012756E0279502BB20F4515021F4220FE3
:101B3000F9CF012756E02991332302BB21F60A7F12
:101B400010918200110FC651D04002BB11F01093CA
:101B50007C0010E41ABF016011B31A7F402F4A7F46
:101B60005F9100C000C002BB11BB42BB7ACF88E0CE
:101B700082BB88E28A95F1F7839B0FC0F89481E1DC
:101B800080935700E8951BBE15BE81E08BBF1BBE3E
:101B9000E0916A00F0916B00099581E08BBF82E0D3
:101BA0008BBF85B7836085BF8BB780648BBF889AF6
:101BB00080E0A895E7EBFBE03197F1F700C000006B
:101BC0008150B9F78898789410E0D0E0A8954091BA
:101BD00081003DEF340F37FD1CC180917E00ACE0E9
:101BE000B0E0A81BB109AB57BF4F80917D008D328B
:101BF00009F0BCC0383009F00AC183EC8093710051
:101C00008AE580936800109270008C91282F2076CE
:101C100011969C9111972223E1F0993079F4129654
:101C20009C911297923031F410926D0087FD8AC01A
:101C30008FEF8AC081E080936C008AC0913009F0F8
:101C400087C080E690E09093800080937F0087E0DB
:101C500080C012968C91129710927A00911106C052
:101C600010927B002AE730E082E067C0953019F4DB
:101C70008093820054C0963009F04BC013969C911B
:101C80001397913019F489E698E11AC0923041F423
:101C900087E498E19093800080937F0082E235C0D2
:101CA0009330F1F4811108C08DE998E190938000A0
:101CB00080937F0084E029C0813041F48BE898E173
:101CC0009093800080937F0082E11FC08230E1F416
:101CD0008BE798E19093800080937F0080E115C0AE
:101CE000913241F489E598E19093800080937F00E0
:101CF00089E00BC0923241F486E298E19093800033
:101D000080937F0081E201C080E090E490937000B6
:101D100020C0983079F0993031F4809384002AE71C
:101D200030E080E00AC081E09A3009F080E02AE7E4
:101D300030E003C024E830E081E03093800020935D
:101D40007F0007C016968C9190E8909370000BC0AE
:101D500080E017969C911797911105C016969C915B
:101D6000981708F4892F8093670051C08091700004
:101D700087FF4DC080916E0090916F0020916D00A3
:101D8000211109C011968C91119712969C9112976E
:101D9000149639EF340F230F20936D002078AD0196
:101DA000682F6F73A9F0F894FA01E190F190AF01F8
:101DB00061E0FC01070160935700E89511247894D5
:101DC000BC016E5F7F4FCB01C62FCF7361F014C093
:101DD000F89463E0FC0160935700E895789407B6A7
:101DE00000FCFDCFE0CFF894C5E0C0935700E89524
:101DF000789407B600FCFDCFE32FEA0FE413D0CFB1
:101E000070936F0060936E00211110926700109222
:101E100081008091680084FF3FC0809167008F3F00
:101E2000D9F1C82F893008F0C8E08C1B8093670077
:101E30009091710088E8892780937100CC2301F18B
:101E400020917F0040918000809170003C2F320FE4
:101E5000A2E7B0E086FF08C0E22FF42F84918D93B3
:101E600031963E13FBCF08C0822F942FFC01819145
:101E70008D93CF013E13FACFF0938000E0937F0063
:101E80006C2F82E790E03EDDCC5FCC3019F08FEF15
:101E900080936700C093680084E190B3957031F43B
:101EA0008150D9F71092820010927C0080916C00D2
:101EB000882329F0D15019F4115009F45FCE839B87
:081EC00085CE5CCEF894FFCF43
:0A1EC80001400000200000FF5A0056
:0400000300001800E1
:00000001FF
